:100000000C9462000C948A000C948A000C948A0070
:100010000C948A000C948A000C948A000C948A0038
:100020000C948A000C948A000C948A000C948A0028
:100030000C948A000C948A000C948A000C948A0018
:100040000C94CE020C948A000C948A000C948A00C2
:100050000C948A000C948A000C948A000C948A00F8
:100060000C9418030C948A00000000002300260062
:10007000290000000008000201000003040700003E
:1000800000000000000000000000250028002B00F8
:1000900000000000240027002A00040404040404D3
:1000A0000404020202020202030303030303010227
:1000B00004081020408001020408102001020408F6
:1000C0001020060511241FBECFEFD8E0DEBFCDBF44
:1000D00011E0A0E0B1E0EEE3FAE002C005900D927D
:1000E000A238B107D9F722E0A2E8B1E001C01D9221
:1000F000A933B207E1F710E0C2E6D0E004C02197CF
:10010000FE010E941705C136D107C9F70E943704C6
:100110000C941D050C940000E0912502F09126023C
:10012000309729F01092220210922102099408952A
:100130000895833081F028F4813099F08230A9F05D
:1001400008958730A9F08830C9F08430B1F48091E7
:1001500080008F7D03C0809180008F778093800026
:10016000089584B58F7784BD089584B58F7DFBCFC6
:100170008091B0008F778093B00008958091B00097
:100180008F7DF9CF1F93CF93DF93282F30E0F901B4
:10019000EE58FF4F8491F901E255FF4FD491F901D8
:1001A000E656FF4FC491CC23A9F0162F81110E946F
:1001B0009900EC2FF0E0EE0FFF1FEA57FF4FA591DB
:1001C000B4918FB7F894EC91111108C0D095DE234B
:1001D000DC938FBFDF91CF911F910895DE2BF8CF75
:1001E000806480937C0080917A00806480937A00A0
:1001F00080917A0086FDFCCF809178009091790003
:1002000008953FB7F8948091190290911A02A09135
:100210001B02B0911C0226B5A89B05C02F3F19F008
:100220000196A11DB11D3FBFBA2FA92F982F882776
:10023000BC01CD01620F711D811D911D43E0660F50
:10024000771F881F991F4A95D1F708952091CA01F9
:10025000260F3327331F21323105ECF42091EE01B4
:10026000FC0190E080E0243069F082E00895A091E4
:10027000CA012191AC0146555E4FA40FB52FB11DA7
:100280002C930196861798F38091CA01680F6093AA
:10029000CA0180E0089581E008951092EE0181E0A6
:1002A0008093F0011092EF0161E082E10E94C200B0
:1002B00061E083E10E94C200E9EBF0E080818E7F83
:1002C000808380818D7F808380E28093B80085E485
:1002D0008093BC0008950895E09124028091230248
:1002E000E81730F4F0E0EC57FE4F808190E008957D
:1002F0008FEF9FEF089590912402809123022FEFBA
:100300003FEF981748F4E92FF0E0EC57FE4F2081BB
:1003100030E09F5F90932402C901089580912302E9
:1003200090912402891B990B0895CF93DF93CB0101
:10033000EA01642F0E942601CE01DF91CF9108953A
:10034000CF93DF931F92CDB7DEB7698361E0CE0113
:1003500001960E94260181E090E00F90DF91CF91FD
:10036000089590E080E0089544E050E067E272E094
:100370008BE292E00C949501CF92DF92EF92FF9284
:100380000F931F93CF93DF9386E00E94F00097FDB9
:100390000396EC01D595C795D595C7951C2F87E099
:1003A0000E94F00097FD0396959587959595879502
:1003B000282FCB57C93008F41FE78B57893008F432
:1003C0002FE71093290220932A02C0E0D1E001E038
:1003D00010E041E0C037D40709F471C0288130E053
:1003E000F901EE58FF4F8491F901E255FF4FE49077
:1003F000F901E656FF4FF490FF2009F459C081112E
:100400000E949900EF2DF0E0EE0FFF1FE859FF4F1B
:10041000A591B491EC91EE2231E020E009F430E0B6
:10042000832F922F29812817190609F43FC02FB76F
:10043000F894409115025091160260911702709144
:1004400018022FBFCA80DB80EC80FD804C195D094B
:100450006E097F09433351056105710538F18983C0
:100460002FB7F8948091150290911602A09117026F
:10047000B09118022FBF8A839B83AC83BD8399817F
:100480008E812091270230912802A80102C0440FDA
:10049000551F8A95E2F7913071F4CA0180959095C5
:1004A000822393239093280280932702279691CF4B
:1004B00090E080E0B7CFCA01822B932BF3CF8091DD
:1004C00027029091280220918201309183018217A6
:1004D000930721F09093830180938201DF91CF9164
:1004E0001F910F91FF90EF90DF90CF900895CF93E1
:1004F000DF9385ED8093BC008091A6019091A701C8
:10050000A091A801B091A9010796A11DB11D23E0FA
:10051000B695A795979587952A95D1F72091BC0018
:1005200024FD03C01092EE0136C04091A601509107
:10053000A7016091A8017091A901452B462B472B7B
:1005400069F30097A105B10541F02AE12A95F1F779
:1005500000C00197A109B109E1CF8091A50191E007
:100560009093A4018823B9F0C091B800D091BA004B
:100570008091BC008A7B8093BC0060E082E10E9495
:10058000C20060E083E10E94C2000E944D01D0934E
:10059000BA00C093B800DF91CF9108951F920F92D7
:1005A0000FB60F9211242F933F938F939F93AF9386
:1005B000BF938091150290911602A0911702B091FD
:1005C00018023091140226E0230F2D3758F50296B9
:1005D000A11DB11D20931402809315029093160261
:1005E000A0931702B09318028091190290911A02F9
:1005F000A0911B02B0911C020196A11DB11D809318
:10060000190290931A02A0931B02B0931C02BF918F
:10061000AF919F918F913F912F910F900FBE0F90AF
:100620001F90189529E8230F0396A11DB11DD2CF65
:100630001F920F920FB60F9211242F933F934F9357
:100640005F936F937F938F939F93AF93BF93EF933A
:10065000FF938091B900887F803609F44AC0F0F595
:10066000883209F4A7C018F5803109F49BC0B8F4AA
:10067000882309F4F9C0883009F494C0FF91EF9100
:10068000BF91AF919F918F917F916F915F914F91AA
:100690003F912F910F900FBE0F901F9018958831AA
:1006A00009F488C0803251F78093ED0114C0803482
:1006B00009F49DC040F48033B9F38833F9F6809390
:1006C000ED0185ECB0C0803509F485C0883509F4AA
:1006D00096C0883499F60E947702D0CF883909F401
:1006E0008CC038F5883729F050F4883611F08037FF
:1006F00029F683E08093EE011092EC0157C0883810
:1007000009F47BC0803919F0803809F0B7CF8091A7
:10071000EC01803208F071C0E091EC0181E08E0FB5
:100720008093EC018091BB00F0E0E453FE4F8083A6
:100730003DC0803B39F0E0F4803A09F479C0883A52
:1007400009F09CCF84E08093EE011092CB011092CF
:10075000CA01E0911F02F091200209958091CA011F
:1007600081110FC081E08093CA011092AA0109C0D3
:10077000803C09F4A6CF883C09F4A3CF883B09F05C
:100780007DCFE091CB0181E08E0F8093CB01F0E033
:10079000E655FE4F80818093BB009091CB01809104
:1007A000CA0129C0809113028093BB0085EC80931D
:1007B000BC0064CF9091120280911102981758F5F5
:1007C000E091120281E08E0F80931202F0E0EF5070
:1007D000FE4F8081E9CFE091120281E08E0F80937D
:1007E00012028091BB00F0E0EF50FE4F80839091A9
:1007F0001202809111029817C8F285E8D8CFE091D3
:10080000120281E08E0F809312028091BB00F0E013
:10081000EF50FE4F80838091F00181115CCF81E029
:100820008093EF0184EA8093BC001092EE0126CF02
:1008300085EC8093BC001092EE018091EC01803237
:1008400030F4E091EC01F0E0E453FE4F108260914F
:10085000EC0170E0E0911D02F0911E028CEC91E041
:1008600009951092EC010ACF1092ED0134CF7894E3
:1008700084B5826084BD84B5816084BD85B58260A5
:1008800085BD85B5816085BD80916E008160809356
:100890006E001092810080918100826080938100BF
:1008A00080918100816080938100809180008160CF
:1008B000809380008091B10084608093B10080912A
:1008C000B00081608093B00080917A008460809352
:1008D0007A0080917A00826080937A0080917A0019
:1008E0008E7F80937A0080917A00806880937A006E
:1008F0001092C10010922402109223021092220240
:10090000109221020E944D018CE890E09093200209
:1009100080931F0288E990E090931E0280931D024D
:1009200080E38093BA0084EB91E090932602809359
:10093000250210922802109227028FE78093290245
:1009400080932A02A0E0B1E020E731E02A173B07BC
:1009500039F18C9190E0FC01E255FF4F44918656AD
:100960009F4FFC0184918823C9F090E0880F991F64
:10097000FC01E057FF4FC591D491FC01EA57FF4FAE
:10098000659174919FB7F8945881842F8095852341
:100990008883EB01E8814E2B48839FBF1796D6CF03
:1009A0008CEB91E09093380280933702C0E0D0E066
:1009B000E0913702F091380209950E9401014B0144
:1009C0005C018AE0C82ED12CE12CF12C0E9401019F
:1009D000681979098A099B09683E73408105910568
:1009E000A8F3E1E0CE1AD108E108F108F8EE8F0E85
:1009F000F3E09F1EA11CB11CC114D104E104F10459
:100A000029F72097A9F20E940000D2CFEBE2F2E092
:100A10001382128288EE93E0A0E0B0E08483958395
:100A2000A683B78384E791E0918380830895EE0FD6
:0E0A3000FF1F0590F491E02D0994F894FFCF7C
:100A3E0000010000000000010100000000010201A1
:100A4E00000000000203010000000003040100008A
:100A5E000000040501000000000506010000000072
:100A6E000607010000000007080100000000080949
:100A7E000100000000090A01000000000A0B01003D
:100A8E000000000B0C01000000000C0D0100000026
:100A9E00000D0E01000000000E0F01000000000FFF
:100AAE0000000000A0019501B1016B018E017B01D8
:020ABE006C01C9
:00000001FF
